:100000000C9434000C9451000C9451000C94510049
:100010000C9451000C9451000C9451000C9451001C
:100020000C9451000C9451000C9451000C9451000C
:100030000C9451000C9451000C94F5000C94510058
:100040000C9451000C9451000C941A010C94510022
:100050000C9451000C9451000C9451000C945100DC
:100060000C9451000C94510011241FBECFEFD8E026
:10007000DEBFCDBF11E0A0E0B1E0E0EEF4E002C0F1
:1000800005900D92AE35B107D9F711E0AEE5B1E0BC
:1000900001C01D92A53AB107E1F70E9453000C94EC
:1000A0006E020C940000AF92BF92CF92DF92EF925B
:1000B000FF921F93DF93CF93CDB7DEB7C85AD040DE
:1000C0000FB6F894DEBF0FBECDBF60E875E280E0EA
:1000D00090E00E94460130E9A32E31E0B32E29E2E0
:1000E000C22ED12CCC0EDD1E7E010894E11CF11C29
:1000F00080E091E00E9471010E9466018823E1F393
:1001000088EE93E0F5013197F1F70197D9F7C60131
:100110000E94A901182FC6010E94710187E191E098
:100120000E947101E12FF0E0EE0FFF1FEE0DFF1DA9
:1001300011A610A68AE191E00E9471010E94660159
:100140008823E1F388EE93E0F5013197F1F7019709
:10015000D9F7C7010E94A901182FC7010E94710198
:1001600087E191E00E947101E12FF0E0EE0FFF1FA7
:10017000EE0DFF1D11821082BBCFEF92FF920F9305
:100180001F937B018C0120915E0130915F014091B2
:1001900060015091610180915E0190915F01A09199
:1001A0006001B0916101821B930BA40BB50B8E15FE
:1001B0009F05A007B10778F320915E0130915F01A0
:1001C0004091600150916101B901CA011F910F91E5
:1001D000FF90EF90089582E084BD93E095BD99EF84
:1001E00097BD80936E00789408951F920F920FB67A
:1001F0000F9211248F939F93AF93BF9380915E01D1
:1002000090915F01A0916001B09161010196A11DE3
:10021000B11D80935E0190935F01A0936001B09344
:100220006101BF91AF919F918F910F900FBE0F9081
:100230001F9018951F920F920FB60F9211248F9353
:100240009F93EF93FF93809164019091C600E82FF4
:10025000F0E0EB59FE4F90838F5F809364018091B3
:1002600064018F738093640180916201803428F46B
:10027000809162018F5F80936201FF91EF919F9166
:100280008F910F900FBE0F901F9018959B01AC019E
:1002900080E28093C00088E98093C10086E080936B
:1002A000C20084E0220F331F441F551F8A95D1F7E7
:1002B00060E074E284EF90E00E944C0221503040F4
:1002C0003093C5002093C400789408958091620112
:1002D0000895982F8091C00085FFFCCF9093C600B1
:1002E0000895FC0107C08091C00085FFFCCF90936A
:1002F000C600319690819923B1F708959C01F901C8
:100300002F5F3F4F9491992339F08091C00085FF72
:10031000FCCF9093C600F3CF0895809162018823AB
:1003200011F4EFEF14C080916301E82FF0E0EB5976
:10033000FE4FE0818F5F80936301809163018F7333
:1003400080936301809162018150809362018E2FBE
:100350000895EF92FF921F93CF93DF937C0110E0FB
:1003600006C00E948D01CE0DDF1D88831F5F809126
:100370006201C12FD0E08823A1F7CE0DDF1D1882C6
:10038000812FDF91CF911F91FF90EF900895809181
:100390006201882311F48FEF0895E0916301F0E08A
:1003A000EB59FE4F808108951F93CF93DF9302C0D6
:1003B0000E948D0180916201882341F0E0916301E8
:1003C000F0E0EB59FE4F8081803364F4809162014C
:1003D000882371F3E0916301F0E0EB59FE4F8081D7
:1003E0008D3231F780916201882341F0E091630101
:1003F000F0E0EB59FE4F80818A33D4F680916201A0
:10040000882361F0E0916301F0E0EB59FE4F8081B9
:100410008D3221F40E948D011FEF01C011E0C0E078
:10042000D0E012C00E948D019E0143E0220F331FD5
:100430004A95E1F7CC0FDD1FC20FD31FE097992734
:1004400087FD9095C80FD91F809162018823A1F084
:10045000E0916301F0E0EB59FE4F8081803364F05E
:10046000809162018823F1F2E0916301F0E0EB59A1
:10047000FE4F80818A33B4F2812F992787FD9095B2
:10048000C89F9001C99F300DD89F300D1124C9011C
:10049000DF91CF911F910895A1E21A2EAA1BBB1BD9
:1004A000FD010DC0AA1FBB1FEE1FFF1FA217B30740
:1004B000E407F50720F0A21BB30BE40BF50B661F56
:1004C000771F881F991F1A9469F76095709580951A
:1004D00090959B01AC01BD01CF010895F894FFCF29
:1004E000556E6573697465207072766920656C65F8
:1004F0006D656E743A20000D0A00556E657369745F
:10050000652062726F6A20636C616E6F7661206E27
:10051000697A61207A61206B6F6A65206A65207054
:100520006F747265626E6F20697A7672736974692E
:0E0530002070726F726163756E653A20000074
:00000001FF
